{"abi":[{"type":"function","name":"checkReadCondition","inputs":[{"name":"","type":"address","internalType":"address"},{"name":"conditionData","type":"bytes","internalType":"bytes"},{"name":"","type":"bytes","internalType":"bytes"}],"outputs":[{"name":"","type":"bool","internalType":"bool"}],"stateMutability":"view"},{"type":"function","name":"checkWriteCondition","inputs":[{"name":"","type":"address","internalType":"address"},{"name":"","type":"bytes","internalType":"bytes"},{"name":"","type":"bytes","internalType":"bytes"}],"outputs":[{"name":"","type":"bool","internalType":"bool"}],"stateMutability":"pure"}],"bytecode":{"object":"0x6080604052348015600e575f5ffd5b506102e48061001c5f395ff3fe608060405234801561000f575f5ffd5b5060043610610034575f3560e01c80634fe607c2146100385780639b3e201d14610068575b5f5ffd5b610052600480360381019061004d919061018c565b610098565b60405161005f9190610237565b60405180910390f35b610082600480360381019061007d919061018c565b6100a6565b60405161008f9190610237565b60405180910390f35b5f6001905095945050505050565b5f5f85858101906100b79190610283565b90508042101591505095945050505050565b5f5ffd5b5f5ffd5b5f73ffffffffffffffffffffffffffffffffffffffff82169050919050565b5f6100fa826100d1565b9050919050565b61010a816100f0565b8114610114575f5ffd5b50565b5f8135905061012581610101565b92915050565b5f5ffd5b5f5ffd5b5f5ffd5b5f5f83601f84011261014c5761014b61012b565b5b8235905067ffffffffffffffff8111156101695761016861012f565b5b60208301915083600182028301111561018557610184610133565b5b9250929050565b5f5f5f5f5f606086880312156101a5576101a46100c9565b5b5f6101b288828901610117565b955050602086013567ffffffffffffffff8111156101d3576101d26100cd565b5b6101df88828901610137565b9450945050604086013567ffffffffffffffff811115610202576102016100cd565b5b61020e88828901610137565b92509250509295509295909350565b5f8115159050919050565b6102318161021d565b82525050565b5f60208201905061024a5f830184610228565b92915050565b5f819050919050565b61026281610250565b811461026c575f5ffd5b50565b5f8135905061027d81610259565b92915050565b5f60208284031215610298576102976100c9565b5b5f6102a58482850161026f565b9150509291505056fea26469706673582212202de67f4798b8176f7428ff11881a13826a0c33f1e8990465b0cb023973dc242964736f6c634300081c0033","linkReferences":{}},"methodIdentifiers":{"checkReadCondition(address,bytes,bytes)":"9b3e201d","checkWriteCondition(address,bytes,bytes)":"4fe607c2"},"id":2}