{"abi":[{"type":"function","name":"checkReadCondition","inputs":[{"name":"","type":"address","internalType":"address"},{"name":"conditionData","type":"bytes","internalType":"bytes"},{"name":"","type":"bytes","internalType":"bytes"}],"outputs":[{"name":"","type":"bool","internalType":"bool"}],"stateMutability":"view"},{"type":"function","name":"checkWriteCondition","inputs":[{"name":"","type":"address","internalType":"address"},{"name":"","type":"bytes","internalType":"bytes"},{"name":"","type":"bytes","internalType":"bytes"}],"outputs":[{"name":"","type":"bool","internalType":"bool"}],"stateMutability":"pure"}],"bytecode":{"object":"0x608060405234601c57600e6020565b6102a561002b82396102a590f35b6026565b60405190565b5f80fdfe60806040526004361015610013575b6101dd565b61001d5f3561003c565b80634fe607c21461003757639b3e201d0361000e576101a4565b61016b565b60e01c90565b60405190565b5f80fd5b5f80fd5b5f80fd5b60018060a01b031690565b61006890610054565b90565b6100748161005f565b0361007b57565b5f80fd5b9050359061008c8261006b565b565b5f80fd5b5f80fd5b5f80fd5b909182601f830112156100d45781359167ffffffffffffffff83116100cf5760200192600183028401116100ca57565b610096565b610092565b61008e565b60608183031261013f576100ef825f830161007f565b92602082013567ffffffffffffffff811161013a578361011091840161009a565b929093604082013567ffffffffffffffff811161013557610131920161009a565b9091565b610050565b610050565b61004c565b151590565b61015290610144565b9052565b9190610169905f60208501940190610149565b565b3461019f5761019b61018a6101813660046100d9565b939290926101e5565b610192610042565b91829182610156565b0390f35b610048565b346101d8576101d46101c36101ba3660046100d9565b9392909261023c565b6101cb610042565b91829182610156565b0390f35b610048565b5f80fd5b5f90565b50505050506101f26101e1565b50600190565b90565b610204816101f8565b0361020b57565b5f80fd5b9050359061021c826101fb565b565b9060208282031261023757610234915f0161020f565b90565b61004c565b50909150610257925061024d6101e1565b509081019061021e565b61026a61026442926101f8565b916101f8565b10159056fea2646970667358221220a072ded69d12c3eab19d8a1208c51207b03fde55c82a7d7b264448b1a2f0e16964736f6c634300081c0033","linkReferences":{}},"methodIdentifiers":{"checkReadCondition(address,bytes,bytes)":"9b3e201d","checkWriteCondition(address,bytes,bytes)":"4fe607c2"},"id":0}