{"abi":[{"type":"constructor","inputs":[{"name":"_musdc","type":"address","internalType":"address"}],"stateMutability":"nonpayable"},{"type":"function","name":"musdc","inputs":[],"outputs":[{"name":"","type":"address","internalType":"address"}],"stateMutability":"view"},{"type":"function","name":"owner","inputs":[],"outputs":[{"name":"","type":"address","internalType":"address"}],"stateMutability":"view"},{"type":"function","name":"purchase","inputs":[{"name":"vaultUuid","type":"uint256","internalType":"uint256"},{"name":"price","type":"uint256","internalType":"uint256"},{"name":"creator","type":"address","internalType":"address"}],"outputs":[{"name":"","type":"bool","internalType":"bool"}],"stateMutability":"nonpayable"},{"type":"event","name":"PurchaseSuccessful","inputs":[{"name":"vaultUuid","type":"uint256","indexed":true,"internalType":"uint256"},{"name":"buyer","type":"address","indexed":true,"internalType":"address"},{"name":"creator","type":"address","indexed":true,"internalType":"address"},{"name":"price","type":"uint256","indexed":false,"internalType":"uint256"}],"anonymous":false}],"bytecode":{"object":"0x60c060405234801561000f575f5ffd5b506040516107af3803806107af833981810160405281019061003191906100fd565b8073ffffffffffffffffffffffffffffffffffffffff1660808173ffffffffffffffffffffffffffffffffffffffff16815250503373ffffffffffffffffffffffffffffffffffffffff1660a08173ffffffffffffffffffffffffffffffffffffffff168152505050610128565b5f5ffd5b5f73ffffffffffffffffffffffffffffffffffffffff82169050919050565b5f6100cc826100a3565b9050919050565b6100dc816100c2565b81146100e6575f5ffd5b50565b5f815190506100f7816100d3565b92915050565b5f602082840312156101125761011161009f565b5b5f61011f848285016100e9565b91505092915050565b60805160a05161066161014e5f395f60d501525f818160b101526101aa01526106615ff3fe608060405234801561000f575f5ffd5b506004361061003f575f3560e01c806367f60971146100435780638da5cb5b14610061578063ea3bd5df1461007f575b5f5ffd5b61004b6100af565b6040516100589190610334565b60405180910390f35b6100696100d3565b6040516100769190610334565b60405180910390f35b610099600480360381019061009491906103ae565b6100f7565b6040516100a69190610418565b60405180910390f35b7f000000000000000000000000000000000000000000000000000000000000000081565b7f000000000000000000000000000000000000000000000000000000000000000081565b5f5f831161013a576040517f08c379a00000000000000000000000000000000000000000000000000000000081526004016101319061048b565b60405180910390fd5b5f73ffffffffffffffffffffffffffffffffffffffff168273ffffffffffffffffffffffffffffffffffffffff16036101a8576040517f08c379a000000000000000000000000000000000000000000000000000000000815260040161019f906104f3565b60405180910390fd5b7f000000000000000000000000000000000000000000000000000000000000000073ffffffffffffffffffffffffffffffffffffffff166323b872dd3384866040518463ffffffff1660e01b815260040161020593929190610520565b6020604051808303815f875af1158015610221573d5f5f3e3d5ffd5b505050506040513d601f19601f82011682018060405250810190610245919061057f565b610284576040517f08c379a000000000000000000000000000000000000000000000000000000000815260040161027b906105f4565b60405180910390fd5b8173ffffffffffffffffffffffffffffffffffffffff163373ffffffffffffffffffffffffffffffffffffffff16857f652b056fbe8adee87f5edc9c45a74016875f070e35134712c9f3b8cdf291e407866040516102e29190610612565b60405180910390a4600190509392505050565b5f73ffffffffffffffffffffffffffffffffffffffff82169050919050565b5f61031e826102f5565b9050919050565b61032e81610314565b82525050565b5f6020820190506103475f830184610325565b92915050565b5f5ffd5b5f819050919050565b61036381610351565b811461036d575f5ffd5b50565b5f8135905061037e8161035a565b92915050565b61038d81610314565b8114610397575f5ffd5b50565b5f813590506103a881610384565b92915050565b5f5f5f606084860312156103c5576103c461034d565b5b5f6103d286828701610370565b93505060206103e386828701610370565b92505060406103f48682870161039a565b9150509250925092565b5f8115159050919050565b610412816103fe565b82525050565b5f60208201905061042b5f830184610409565b92915050565b5f82825260208201905092915050565b7f5072696365206d757374206265203e20300000000000000000000000000000005f82015250565b5f610475601183610431565b915061048082610441565b602082019050919050565b5f6020820190508181035f8301526104a281610469565b9050919050565b7f496e76616c69642063726561746f7200000000000000000000000000000000005f82015250565b5f6104dd600f83610431565b91506104e8826104a9565b602082019050919050565b5f6020820190508181035f83015261050a816104d1565b9050919050565b61051a81610351565b82525050565b5f6060820190506105335f830186610325565b6105406020830185610325565b61054d6040830184610511565b949350505050565b61055e816103fe565b8114610568575f5ffd5b50565b5f8151905061057981610555565b92915050565b5f602082840312156105945761059361034d565b5b5f6105a18482850161056b565b91505092915050565b7f5472616e73666572206661696c656400000000000000000000000000000000005f82015250565b5f6105de600f83610431565b91506105e9826105aa565b602082019050919050565b5f6020820190508181035f83015261060b816105d2565b9050919050565b5f6020820190506106255f830184610511565b9291505056fea264697066735822122059698635580b838b274c3871a528969cf9490739b5589344d3c5f9ddcea3359664736f6c634300081c0033","linkReferences":{}},"methodIdentifiers":{"musdc()":"67f60971","owner()":"8da5cb5b","purchase(uint256,uint256,address)":"ea3bd5df"},"id":1}